S01700004763634170706C69636174696F6E312E737265635B
S11300000C942A000C9434000C9434000C943400A6
S11300100C9434000C9434000C9434000C9434008C
S11300200C9434000C9434000C9434000C9434007C
S11300300C9434000C9434000C9434000C9434006C
S11300400C9434000C9434000C9434000C9434005C
S11300500C94340011241FBECFE5D8E0DEBFCDBF21
S11300600E9466000C947F030C94000040E00E9400
S1130070E001811181E008951F93CF93DF93D82F7E
S1130080162F41E00E94E001C82F41E0612F8D2F1F
S11300900E946B028C0F09F081E0DF91CF911F91D8
S11300A008951F93CF93DF93D82F162F41E00E941A
S11300B0E001C82F40E0612F8D2F0E946B028C0F4E
S11300C009F082E0DF91CF911F91089580E00E94B2
S11300D0F60260E084E40E94360060E083E40E945B
S11300E03C0061E083E40E943C0062E083E40E94FF
S11300F0510063E083E40E94510064E083E40E94C1
S1130100510065E083E40E945100D0E0C0E0B0E01B
S1130110A0E0F0E0F12C00E010E01FC080992FC0B7
S113012083B7816083BF08B600FEFDCF88B78160C6
S113013088BF13BE2D2F3C2F4B2F5A2F6F2F7F2D8F
S1130140802F912FA1E00E946A03D22FC32FB42FD6
S1130150A52FF62FF72E082F192F2D2F3C2F4B2FBD
S11301605A2F6F2F7F2D802F912F2C3231434140F6
S11301705105610571058105910581F27CF262E00A
S113018083E40E943C0063E083E40E943C0060E05E
S113019083E40E94510061E083E40E94510064E022
S11301A083E40E94510065E083E40E945100F12C35
S11301B041C083B7816083BF08B600FEFDCF88B716
S11301C0816088BF13BE2D2F3C2F4B2F5A2F6F2FCA
S11301D07E2D802F912FA1E00E946A03D22FC32F7E
S11301E0B42FA52FF62FE72E082F192F08C0D0E023
S11301F0C0E0B0E0A0E0F0E0E12C00E010E02D2F42
S11302003C2F4B2F5A2F6F2F7E2D802F912F233869
S11302103E4141055105610571058105910549F28C
S113022044F2F39495B384E0892785BB95B388E0C1
S1130230892785BB89E08F15D0F664E083E40E94AA
S11302403C0065E083E40E943C0060E083E40E949B
S1130250510061E083E40E94510062E083E40E9463
S1130260510063E083E40E945100D0E0C0E0B0E0BC
S1130270A0E0F0E0E12C00E010E0F12C23C080B31A
S1130280982F9170F92E80FD2FC083B7816083BFB2
S113029008B600FEFDCF88B7816088BF13BE2D2F3E
S11302A03C2F4B2F5A2F6F2F7E2D802F912FA1E0A3
S11302B00E946A03D22FC32FB42FA52FF62FE72E47
S11302C0082F192F2D2F3C2F4B2F5A2F6F2F7E2D98
S11302D0802F912F2C323143414051056105710526
S11302E08105910561F25CF281E0F8120AC02DE209
S11302F031E341E050E060E070E080E090E00E9493
S1130300F90262E083E40E943C0063E083E40E941B
S11303103C0060E083E40E94510061E083E40E94B9
S1130320510064E083E40E94510065E083E40E948C
S11303305100F12C41C083B7816083BF08B600FE31
S1130340FDCF88B7816088BF13BE2D2F3C2F4B2F64
S11303505A2F6F2F7E2D802F912FA1E00E946A03C8
S1130360D22FC32FB42FA52FF62FE72E082F192F26
S113037008C0D0E0C0E0B0E0A0E0F0E0E12C00E094
S113038010E02D2F3C2F4B2F5A2F6F2F7E2D802FB7
S1130390912F23383E4141055105610571058105C1
S11303A0910549F244F2F39495B384E0892785BB1F
S11303B095B388E0892785BB89E08F15D0F68DCE6B
S11303C0823441F118F4813441F07BC0833409F460
S11303D03EC0843409F458C074C0413061F42AB377
S11303E081E090E002C0880F991F6A95E2F7822BA2
S11303F08ABB80E00895411166C02AB381E090E091
S113040002C0880F991F6A95E2F7809582238ABB00
S113041080E00895413061F427B381E090E002C0A8
S1130420880F991F6A95E2F7822B87BB80E00895B5
S113043041114BC027B381E090E002C0880F991F9F
S11304406A95E2F78095822387BB80E00895413066
S113045061F424B381E090E002C0880F991F6A958B
S1130460E2F7822B84BB80E00895411130C024B3AD
S113047081E090E002C0880F991F6A95E2F78095A9
S1130480822384BB80E00895413061F421B381E08C
S113049090E002C0880F991F6A95E2F7822B81BB16
S11304A080E00895411115C021B381E090E002C0BD
S11304B0880F991F6A95E2F78095822381BB80E0BB
S11304C0089581E0089580E0089580E0089580E033
S11304D0089580E00895823441F118F4813441F0A4
S11304E07BC0833409F43EC0843409F458C074C01A
S11304F0413061F42BB381E090E002C0880F991F72
S11305006A95E2F7822B8BBB80E00895411166C0A7
S11305102BB381E090E002C0880F991F6A95E2F73F
S1130520809582238BBB80E00895413061F428B329
S113053081E090E002C0880F991F6A95E2F7822B50
S113054088BB80E0089541114BC028B381E090E05E
S113055002C0880F991F6A95E2F78095822388BBB1
S113056080E00895413061F425B381E090E002C059
S1130570880F991F6A95E2F7822B85BB80E0089566
S1130580411130C025B381E090E002C0880F991F6B
S11305906A95E2F78095822385BB80E00895413017
S11305A061F422B381E090E002C0880F991F6A953C
S11305B0E2F7822B82BB80E00895411115C022B37B
S11305C081E090E002C0880F991F6A95E2F7809558
S11305D0822382BB80E0089582E0089580E008953C
S11305E080E0089580E0089580E0089513BE82BFFE
S11305F008952F923F924F925F926F927F928F92C3
S11306009F92AF92BF92CF92DF92EF92FF920F939D
S11306101F93CF93DF9300D000D0CDB7DEB7622E07
S1130620732E842E952E6C837B8389839A8380E03A
S11306300E94F602412C512CB0E0A0E0F0E0E0E092
S1130640212C312C1DC083B7816083BF08B600FE06
S1130650FDCF88B7816088BF13BE242D352D4B2F65
S11306605A2F6F2F7E2F822D932DA1E00E946A03B3
S1130670422E532EB42FA52FF62FE72F282E392ED6
S1130680242D352D4B2F5A2F6F2F7E2F822D932DF6
S1130690A62CB72CC82CD92CEC80FB8009811A819C
S11306A00E94760384F20F900F900F900F90DF91C9
S11306B0CF911F910F91FF90EF90DF90CF90BF905B
S11306C0AF909F908F907F906F905F904F903F90EE
S11306D02F9008950024A7FD00942A0F301D401D7B
S11306E0501D601D701D801D901D08952A153B0529
S11306F04C055D056E057F05800791070895F89404
S1050700FFCF25
S9030000FC
